:020000040000FA
:100000000C9435000C945D000C945D000C945D0024
:100010000C945D000C945D000C945D000C945D00EC
:100020000C945D000C945D000C945D000C945D00DC
:100030000C945D000C945D000C945D000C945D00CC
:100040000C946C020C945D000C943A020C94140213
:100050000C945D000C945D000C945D000C945D00AC
:100060000C945D000C945D006C0411241FBECFEF56
:10007000D8E0DEBFCDBF11E0A0E0B1E0EEEFFDE0E3
:1000800002C005900D92A033B107D9F721E0A0E39B
:10009000B1E001C01D92AE3EB207E1F710E0C5E34A
:1000A000D0E004C02197FE010E94F706C433D107B7
:1000B000C9F70E94B6020C94FD060C940000AF92A2
:1000C000BF92CF92DF92EF92FF920F931F93CF9345
:1000D000DF936C017B018B01040F151FEB015E01A7
:1000E000AE18BF08C017D10759F06991D601ED913C
:1000F000FC910190F081E02DC6010995892B79F7DB
:10010000C501DF91CF911F910F91FF90EF90DF908C
:10011000CF90BF90AF900895FC01538D448D252F53
:1001200030E0842F90E0821B930B541710F0CF9691
:10013000089501970895FC01918D828D981761F0C3
:10014000A28DAE0FBF2FB11D5D968C91928D9F5FDA
:100150009F73928F90E008958FEF9FEF0895FC01B9
:10016000918D828D981731F0828DE80FF11D858D6C
:1001700090E008958FEF9FEF0895FC01918D228DFF
:10018000892F90E0805C9F4F821B91098F73992784
:10019000089581E591E00E94BD0021E0892B09F4DA
:1001A00020E0822F089580E090E0892B29F00E94C2
:1001B000C90081110C9400000895FC01A48DA80FC2
:1001C000B92FB11DA35ABF4F2C91848D90E0019699
:1001D0008F739927848FA689B7892C93A089B189B9
:1001E0008C91837080648C93938D848D981306C05A
:1001F0000288F389E02D80818F7D80830895EF92BE
:10020000FF920F931F93CF93DF93EC0181E0888FD0
:100210009B8D8C8D98131AC0E889F989808185FFA0
:1002200015C09FB7F894EE89FF896083E889F98942
:1002300080818370806480839FBF81E090E0DF9144
:10024000CF911F910F91FF90EF900895F62E0B8D97
:1002500010E00F5F1F4F0F731127E02E8C8D8E1152
:100260000CC00FB607FCFACFE889F989808185FFB9
:10027000F5CFCE010E94DD00F1CFEB8DEC0FFD2F0D
:10028000F11DE35AFF4FF0829FB7F8940B8FEA8974
:10029000FB8980818062CFCFCF93DF93EC01888D83
:1002A0008823B9F0AA89BB89E889F9898C9185FDF1
:1002B00003C0808186FD0DC00FB607FCF7CF8C917F
:1002C00085FFF2CF808185FFEDCFCE010E94DD005A
:1002D000E9CFDF91CF9108953FB7F8948091350130
:1002E00090913601A0913701B091380126B5A89BB5
:1002F00005C02F3F19F00196A11DB11D3FBFBA2FB8
:10030000A92F982F8827BC01CD01620F711D811D77
:10031000911D42E0660F771F881F991F4A95D1F7FC
:1003200008958F929F92AF92BF92CF92DF92EF92F9
:10033000FF924B015C010E946C016B017C010E94E9
:100340006C016C197D098E099F09683E7340810517
:100350009105A8F321E0821A9108A108B10888EE5E
:10036000C80E83E0D81EE11CF11C81149104A10485
:10037000B10429F7FF90EF90DF90CF90BF90AF903E
:100380009F908F900895FC0101900020E9F731972C
:10039000AF01481B590BBC0181E591E00C945F0053
:1003A0008F929F92AF92BF920F931F93CF93DF9341
:1003B000CDB7DEB7A1970FB6F894DEBF0FBECDBFA5
:1003C00019A2423008F44AE08E010F5D1F4F842EBF
:1003D000912CB12CA12CA50194010E94D506E62FE9
:1003E000B901CA01EA30F4F4E05DD801EE938D0161
:1003F000232B242B252B79F790E080E0109719F020
:10040000CD010E94C301A1960FB6F894DEBF0FBEC6
:10041000CDBFDF91CF911F910F91BF90AF909F9073
:100420008F900895E95CE1CF1F920F920FB60F9263
:1004300011242F933F934F935F936F937F938F93E9
:100440009F93AF93BF93EF93FF9381E591E00E9459
:10045000DD00FF91EF91BF91AF919F918F917F91BF
:100460006F915F914F913F912F910F900FBE0F9021
:100470001F9018951F920F920FB60F9211242F9371
:100480008F939F93EF93FF93E0916101F09162014D
:100490008081E0916701F091680182FD1BC090812D
:1004A00080916A018F5F8F7320916B01821741F0F9
:1004B000E0916A01F0E0EF5AFE4F958F80936A0158
:1004C000FF91EF919F918F912F910F900FBE0F9001
:1004D0001F9018958081F4CF1F920F920FB60F9244
:1004E00011242F933F938F939F93AF93BF9380914A
:1004F000310190913201A0913301B09134013091DA
:10050000300123E0230F2D3758F50196A11DB11DB1
:10051000209330018093310190933201A0933301F5
:10052000B09334018091350190913601A09137014B
:10053000B09138010196A11DB11D809335019093B2
:100540003601A0933701B0933801BF91AF919F91CD
:100550008F913F912F910F900FBE0F901F90189584
:1005600026E8230F0296A11DB11DD2CF789484B541
:10057000826084BD84B5816084BD85B5826085BD9F
:1005800085B5816085BD80916E00816080936E002D
:10059000109281008091810082608093810080911F
:1005A00081008160809381008091800081608093D0
:1005B00080008091B10084608093B1008091B00090
:1005C00081608093B00080917A00846080937A008B
:1005D00080917A00826080937A0080917A008160B5
:1005E00080937A0080917A00806880937A001092DC
:1005F000C100E0916101F091620182E08083E091AD
:100600005D01F0915E011082E0915F01F091600167
:100610008FEC808310926901E0916501F091660191
:1006200086E08083E0916301F091640180818061C4
:100630008083E0916301F091640180818860808310
:10064000E0916301F0916401808180688083E09192
:100650006301F091640180818F7D808382E191E06C
:100660000E94C30188E191E00E94C3012FE4222E81
:1006700021E0322E0DE411E0C0E0D0E09DE3E92E50
:1006800091E0F92E80E480937C0080917A00806470
:1006900080937A0080917A0086FDFCCF809178006B
:1006A00090917900F701819391937F016AE070E066
:1006B00080E090E00E949101F1E5EF16F1E0FF0685
:1006C00009F7EDE3F1E0DF018081918112962D9130
:1006D0003C9113972817390734F4318320831396FC
:1006E0009C938E93129712962A163B0669F73296C0
:1006F00081E0EF34F80739F7E1E4F1E060E070E021
:10070000CB01C190D1900D2C000CEE08FF086C0DB0
:100710007D1D8E1D9F1D0E171F0799F760933901D0
:1007200070933A0180933B0190933C010E94AC0589
:1007300020E030E040EA50E40E94630620E030E030
:1007400040E85AE30E94630620E030E040EC50E4C9
:100750000E940B0520E030E040E650E40E94630672
:100760006B017C014B015C018BE191E00E94C301B4
:10077000A7019601C701B6010E94D0068823E9F0BF
:1007800082E291E00E94C3018EE291E00E94C301E7
:1007900088E191E00E94C30160E273E080E090E0B4
:1007A0000E949101209709F469CF0E94C900882313
:1007B00009F464CF0E94000061CF26013701E8945C
:1007C00077F82FEF3FEF4FE75FE7C301B2010E94D9
:1007D000D00681110DC02FEF3FEF4FE75FE7C30158
:1007E000B2010E94060518161CF486E291E0CACFF9
:1007F0002FEF3FEF4FE75FE4C701B6010E945E06AF
:1008000018161CF48AE291E0BDCF2FEF3FEF4FE7BF
:100810005FECC701B6010E94060587FDF3CF20E01B
:1008200030E0A901C701B6010E94060587FF0BC091
:100830006DE281E591E00E94FF0046015701B7FAA1
:10084000B094B7F8B0942BEA35EC47EA56E3C5010B
:10085000B4010E949A046B017C010E947D054B014A
:100860005C010E94AC059B01AC01C701B6010E946E
:1008700099046B017C014AE0C501B4010E94D001DA
:100880006EE281E591E00E94FF0086E0782E7A9486
:10089000772009F479CF20E030E040E251E4C7014D
:1008A000B6010E9463064B015C010E947D056B014D
:1008B000F12CE12C4AE0C701B6010E94D001C7012A
:1008C000B6010E94AC059B01AC01C501B4010E94B8
:1008D00099046B017C01DBCFE1E5F1E01382128228
:1008E00088EE93E0A0E0B0E084839583A683B7838D
:1008F00084E091E09183808385EC90E09587848704
:1009000084EC90E09787868780EC90E0918B808BD9
:1009100081EC90E0938B828B82EC90E0958B848BC2
:1009200086EC90E0978B868B118E128E138E148E30
:1009300008955058BB27AA270E94B1040C9424069E
:100940000E94160638F00E941D0620F039F49F3FE1
:1009500019F426F40C9413060EF4E095E7FB0C94BE
:100960000D06E92F0E94350658F3BA176207730780
:100970008407950720F079F4A6F50C9457060EF439
:10098000E0950B2EBA2FA02D0B01B90190010C019F
:10099000CA01A0011124FF27591B99F0593F50F4B7
:1009A000503E68F11A16F040A22F232F342F44270F
:1009B000585FF3CF469537952795A795F040539507
:1009C000C9F77EF41F16BA0B620B730B840BBAF0D7
:1009D0009150A1F0FF0FBB1F661F771F881FC2F742
:1009E0000EC0BA0F621F731F841F48F48795779556
:1009F0006795B795F7959E3F08F0B0CF9395880F10
:100A000008F09927EE0F9795879508950E94E905BC
:100A100008F481E008950E941F050C9424060E94AA
:100A20001D0658F00E94160640F029F45F3F29F099
:100A30000C940D0651110C9458060C9413060E9448
:100A4000350668F39923B1F3552391F3951B550BA4
:100A5000BB27AA2762177307840738F09F5F5F4F91
:100A6000220F331F441FAA1FA9F335D00E2E3AF0D0
:100A7000E0E832D091505040E695001CCAF72BD0E8
:100A8000FE2F29D0660F771F881FBB1F2617370739
:100A90004807AB07B0E809F0BB0B802DBF01FF276B
:100AA00093585F4F3AF09E3F510578F00C940D0635
:100AB0000C9458065F3FE4F3983ED4F386957795FF
:100AC0006795B795F7959F5FC9F7880F911D969524
:100AD000879597F90895E1E0660F771F881FBB1F80
:100AE000621773078407BA0720F0621B730B840B2D
:100AF000BA0BEE1F88F7E09508950E943D0688F036
:100B00009F5798F0B92F9927B751B0F0E1F0660FD1
:100B1000771F881F991F1AF0BA95C9F714C0B13012
:100B200091F00E945706B1E008950C945706672F84
:100B3000782F8827B85F39F0B93FCCF38695779541
:100B40006795B395D9F73EF490958095709561952A
:100B50007F4F8F4F9F4F0895E89409C097FB3EF455
:100B600090958095709561957F4F8F4F9F4F9923FA
:100B7000A9F0F92F96E9BB279395F6958795779578
:100B80006795B795F111F8CFFAF4BB0F11F460FF38
:100B90001BC06F5F7F4F8F4F9F4F16C0882311F090
:100BA00096E911C0772321F09EE8872F762F05C0A4
:100BB000662371F096E8862F70E060E02AF09A953F
:100BC000660F771F881FDAF7880F9695879597F934
:100BD0000895990F0008550FAA0BE0E8FEEF1616CE
:100BE0001706E807F907C0F012161306E407F50721
:100BF00098F0621B730B840B950B39F40A2661F095
:100C0000232B242B252B21F408950A2609F4A14037
:100C1000A6958FEF811D811D089597F99F6780E844
:100C200070E060E008959FEF80EC089500240A943E
:100C30001616170618060906089500240A941216B7
:100C40001306140605060895092E0394000C11F4EA
:100C5000882352F0BB0F40F4BF2B11F460FF04C097
:100C60006F5F7F4F8F4F9F4F089557FD9058440FF0
:100C7000551F59F05F3F71F04795880F97FB991FFB
:100C800061F09F3F79F087950895121613061406B8
:100C9000551FF2CF4695F1DF08C016161706180645
:100CA000991FF1CF86957105610508940895E89420
:100CB000BB2766277727CB0197F908950E94E9059E
:100CC00008F48FEF08950E9476060C9424060E9483
:100CD000160638F00E941D0620F0952311F00C94A2
:100CE0000D060C94130611240C9458060E94350628
:100CF00070F3959FC1F3950F50E0551F629FF0016F
:100D0000729FBB27F00DB11D639FAA27F00DB11D87
:100D1000AA1F649F6627B00DA11D661F829F222710
:100D2000B00DA11D621F739FB00DA11D621F839F97
:100D3000A00D611D221F749F3327A00D611D231F6D
:100D4000849F600D211D822F762F6A2F11249F57BB
:100D500050409AF0F1F088234AF0EE0FFF1FBB1FBE
:100D6000661F771F881F91505040A9F79E3F51057D
:100D700080F00C940D060C9458065F3FE4F3983E07
:100D8000D4F3869577956795B795F795E7959F5F27
:100D9000C1F7FE2B880F911D9695879597F90895B9
:100DA0000E94E905880B990B0895A1E21A2EAA1B4F
:100DB000BB1BFD010DC0AA1FBB1FEE1FFF1FA2170B
:100DC000B307E407F50720F0A21BB30BE40BF50B08
:100DD000661F771F881F991F1A9469F76095709591
:100DE000809590959B01AC01BD01CF010895EE0F58
:100DF000FF1F0590F491E02D0994F894FFCF0000B7
:100E00000000FF005F008C004C01BD009B00AF00A4
:100E10005265616479000D0A0020202070483A0074
:0E0E20006E616E00696E66006F7666002000DF
:107E0000112484B714BE81FFF0D085E080938100F7
:107E100082E08093C00088E18093C10086E0809377
:107E2000C20080E18093C4008EE0C9D0259A86E02C
:107E300020E33CEF91E0309385002093840096BBD3
:107E4000B09BFECF1D9AA8958150A9F7CC24DD24C4
:107E500088248394B5E0AB2EA1E19A2EF3E0BF2EE7
:107E6000A2D0813461F49FD0082FAFD0023811F036
:107E7000013811F484E001C083E08DD089C08234E0
:107E800011F484E103C0853419F485E0A6D080C0E4
:107E9000853579F488D0E82EFF2485D0082F10E0AE
:107EA000102F00270E291F29000F111F8ED06801E7
:107EB0006FC0863521F484E090D080E0DECF843638
:107EC00009F040C070D06FD0082F6DD080E0C81688
:107ED00080E7D80618F4F601B7BEE895C0E0D1E017
:107EE00062D089930C17E1F7F0E0CF16F0E7DF06D8
:107EF00018F0F601B7BEE89568D007B600FCFDCFD4
:107F0000A601A0E0B1E02C9130E011968C91119780
:107F100090E0982F8827822B932B1296FA010C0160
:107F200087BEE89511244E5F5F4FF1E0A038BF0790
:107F300051F7F601A7BEE89507B600FCFDCF97BE46
:107F4000E89526C08437B1F42ED02DD0F82E2BD052
:107F50003CD0F601EF2C8F010F5F1F4F84911BD097
:107F6000EA94F801C1F70894C11CD11CFA94CF0C13
:107F7000D11C0EC0853739F428D08EE10CD085E9AC
:107F80000AD08FE07ACF813511F488E018D01DD067
:107F900080E101D065CF982F8091C00085FFFCCF94
:107FA0009093C60008958091C00087FFFCCF809118
:107FB000C00084FD01C0A8958091C6000895E0E648
:107FC000F0E098E1908380830895EDDF803219F02E
:107FD00088E0F5DFFFCF84E1DECF1F93182FE3DFCA
:107FE0001150E9F7F2DF1F91089580E0E8DFEE27F6
:047FF000FF270994CA
:027FFE00040479
:00000001FF
