:020000040000FA
:100000000C945D000C9485000C9485000C94850084
:100010000C9485000C9485000C9485000C9485004C
:100020000C9485000C9485000C9485000C9485003C
:100030000C9485000C9485000C9485000C9485002C
:100040000C948B060C9485000C9459060C94330682
:100050000C9485000C9485000C9485000C9485000C
:100060000C94D5060C9485000000000024002700A5
:100070002A0000000000250028002B0004040404CE
:100080000404040402020202020203030303030342
:10009000010204081020408001020408102001021F
:1000A00004081020000000080002010000030407FB
:1000B0000000000000000000F40711241FBECFEF75
:1000C000D8E0DEBFCDBF11E0A0E0B1E0ECE6FAE1A0
:1000D00002C005900D92AA38B107D9F723E0AAE82B
:1000E000B1E001C01D92AC31B207E1F710E0CDE5FF
:1000F000D0E004C02197FE010E942E0DCC35D1071F
:10010000C9F70E943C080C94340D0C94000008952B
:100110000895AF92BF92CF92DF92EF92FF920F932A
:100120001F93CF93DF936C017B018B01040F151F8D
:10013000EB015E01AE18BF08C017D10759F06991F5
:10014000D601ED91FC910190F081E02DC601099559
:10015000892B79F7C501DF91CF911F910F91FF9006
:10016000EF90DF90CF90BF90AF900895FC01538D3A
:10017000448D252F30E0842F90E0821B930B541781
:1001800010F0CF96089501970895FC01918D828D0E
:10019000981761F0A28DAE0FBF2FB11D5D968C91A7
:1001A000928D9F5F9F73928F90E008958FEF9FEFE6
:1001B0000895FC01918D828D981731F0828DE80FA2
:1001C000F11D858D90E008958FEF9FEF0895FC015C
:1001D000918D228D892F90E0805C9F4F821B910929
:1001E0008F739927089587E692E00E94E70021E047
:1001F000892B09F420E0822F089580E090E0892B7C
:1002000029F00E94F30081110C9400000895FC0174
:10021000A48DA80FB92FB11DA35ABF4F2C91848D67
:1002200090E001968F739927848FA689B7892C93C4
:10023000A089B1898C91837080648C93938D848D17
:10024000981306C00288F389E02D80818F7D80831A
:100250000895EF92FF920F931F93CF93DF93EC01DA
:1002600081E0888F9B8D8C8D98131AC0E889F9895D
:10027000808185FF15C09FB7F894EE89FF89608360
:10028000E889F98980818370806480839FBF81E0E1
:1002900090E0DF91CF911F910F91FF90EF90089523
:1002A000F62E0B8D10E00F5F1F4F0F731127E02EFE
:1002B0008C8D8E110CC00FB607FCFACFE889F98936
:1002C000808185FFF5CFCE010E940701F1CFEB8D34
:1002D000EC0FFD2FF11DE35AFF4FF0829FB7F8940A
:1002E0000B8FEA89FB8980818062CFCFCF93DF9328
:1002F000EC01888D8823B9F0AA89BB89E889F9893E
:100300008C9185FD03C0808186FD0DC00FB607FC72
:10031000F7CF8C9185FFF2CF808185FFEDCFCE01A5
:100320000E940701E9CFDF91CF91089590E0FC0191
:10033000EC55FF4F2491FC01E057FF4F3491FC0135
:10034000E458FF4FE491EE23C9F0222339F0233023
:1003500001F1A8F4213019F1223029F1F0E0EE0F7B
:10036000FF1FEE58FF4FA591B4918FB7F894EC9111
:10037000611126C030953E233C938FBF08952730EE
:10038000A9F02830C9F0243049F7809180008F7D92
:1003900003C0809180008F7780938000DFCF84B589
:1003A0008F7784BDDBCF84B58F7DFBCF8091B0008C
:1003B0008F778093B000D2CF8091B0008F7DF9CF3E
:1003C0003E2BDACFCF93DF9390E0FC01E057FF4F55
:1003D000249184589F4FFC0184918823D1F090E0B0
:1003E000880F991FFC01E859FF4FA591B491FC01BA
:1003F000EE58FF4FC591D49161110EC09FB7F8948C
:100400008C91E22FE0958E238C932881E223E88360
:100410009FBFDF91CF9108958FB7F894EC91E22BB5
:10042000EC938FBFF6CF8E3008F08E5087708064CB
:1004300080937C0080917A00806480937A00809120
:100440007A0086FDFCCF8091780090917900089524
:100450003FB7F8948091410290914202A0914302EB
:10046000B091440226B5A89B05C02F3F19F0019614
:10047000A11DB11D3FBFBA2FA92F982F8827BC01FE
:10048000CD01620F711D811D911D42E0660F771F26
:10049000881F991F4A95D1F708958F929F92AF9226
:1004A000BF92CF92DF92EF92FF924B015C010E94CC
:1004B00028026B017C010E9428026C197D098E09BB
:1004C0009F09683E734081059105A8F321E0821AD7
:1004D0009108A108B10888EEC80E83E0D81EE11C7F
:1004E000F11C81149104A104B10429F7FF90EF904D
:1004F000DF90CF90BF90AF909F908F900895089518
:100500002091CB01260F3327331F21323105ECF424
:1005100020911402FC0190E080E0243069F082E038
:100520000895A091CB012191AC0145555E4FA40FD8
:10053000B52FB11D2C930196861798F38091CB01AE
:10054000680F6093CB0180E0089581E008951092D8
:10055000140281E0809313021092EE0161E082E1C7
:100560000E94960161E083E10E949601E9EBF0E0D0
:1005700080818E7F808380818D7F808388E48093DB
:10058000B80085E48093BC000895CF93DF9391E099
:100590009093AA018823B9F0C091B800D091BA0015
:1005A0008091BC008A7B8093BC0060E082E10E9465
:1005B000960160E083E10E9496010E94A702D09319
:1005C000BA00C093B800DF91CF9108950895E091EB
:1005D0004C0280914B02E81730F4F0E0E657FE4FF2
:1005E000808190E008958FEF9FEF089590914C02E5
:1005F00080914B022FEF3FEF981748F4E92FF0E07E
:10060000E657FE4F208130E09F5F90934C02C90176
:10061000089580914B0290914C02891B990B08958B
:10062000CF92DF92EF92FF920F931F93CF93DF93BE
:100630007C01CB018A0120911A02222389F0EB016F
:100640006B01C40ED51ECC15DD0569F06991D7018B
:10065000ED91FC910190F081E02DC7010995F3CF58
:10066000642F0E948002C801DF91CF911F910F91EA
:10067000FF90EF90DF90CF900895CF93DF931F927C
:10068000CDB7DEB7698320911A022223F9F02091B9
:100690004902203258F021E030E0FC01338322830C
:1006A00090E080E00F90DF91CF91089580914A0211
:1006B000E82FF0E0E55EFD4F998190838F5F809396
:1006C0004A028093490281E090E0ECCF61E0CE01E4
:1006D00001960E948002F7CFCF92DF92EF92FF92B5
:1006E0000F931F93CF93DF93FC01C48121E02093EC
:1006F0001A02C0933B0210924A021092490283856B
:10070000682B84E093E00E943D03D0914902D132EE
:1007100008F092C00E9428026B017C0180911402B3
:10072000811165C082E08093140281E080931302FE
:100730008FEF8093120210921102D0931002ABE15E
:10074000B2E0E0EFF1E080E0D81385C01092EF0155
:100750008091EF01CC0FC82BC093EF018091EE0187
:10076000813009F07CC01092EE010E9428026B01DA
:100770007C018091EF018093BB00809116029091E3
:100780001702A0911802B0911902892B8A2B8B2B8A
:1007900099F00E94280200911602109117022091F0
:1007A0001802309119026C197D098E099F090617EC
:1007B000170728073907E0F18091BC0083FDD9CFE6
:1007C00085EC8093BC000E9428026B017C01809123
:1007D0001402823009F445C0809112028F3F61F10A
:1007E00080911202803241F18091120225C08091E5
:1007F000160290911702A0911802B0911902892B4C
:100800008A2B8B2B09F48ACF0E94280200911602B2
:100810001091170220911802309119026C197D096C
:100820008E099F09061717072807390708F076CFA2
:10083000809115020E94C50210924A02109249024C
:1008400010921A02DF91CF911F910F91FF90EF90BC
:10085000DF90CF9008959D9191938F5F75CF85EE36
:10086000B0CF8091160290911702A0911802B0911A
:100870001902892B8A2B8B2B09F4A9CF0E942802FD
:10088000009116021091170220911802309119025E
:100890006C197D098E099F09061717072807390764
:1008A00008F095CFC5CF90E080E008950F931F9397
:1008B000CF938C01C62F0E946C036C2F6460C8011B
:1008C0000E946C036C2F6B7FC8010E946C0383EC49
:1008D00090E00197F1F7CF911F910F9108950F9339
:1008E0001F93CF93DF938C01D62FC42F607F642B8F
:1008F0000E94560480E1D89FB00111246C2BC801DE
:10090000DF91CF911F910F910C945604CF93DF93F9
:10091000CDB7DEB728970FB6F894DEBF0FBECDBFB8
:1009200098E0E0E0F1E0DE01119601900D929A95D9
:10093000E1F7909118032FEF911121E030E0220FA1
:10094000331F41E050E04C0F5D1F240F351FF901AC
:100950006081680F606840E080E193E028960FB600
:10096000F894DEBF0FBECDBFDF91CF910C946F0422
:1009700041E00E946F0481E090E00895FB01019046
:100980000020E9F73197AF01461B570BDC01ED91D1
:10099000FC910280F381E02D09948F929F92AF9297
:1009A000BF92EF92FF920F931F93CF93DF93CDB738
:1009B000DEB7A1970FB6F894DEBF0FBECDBF7C01A6
:1009C000FA01CB0119A2223008F42AE08E010F5D52
:1009D0001F4F822E912CB12CA12CBF01A501940197
:1009E0000E940C0DF901CA016A300CF5605DD80156
:1009F0006E938D01232B242B252B79F790E080E03B
:100A0000109721F0BD01C7010E94BE04A1960FB648
:100A1000F894DEBF0FBECDBFDF91CF911F910F9134
:100A2000FF90EF90BF90AF909F908F900895695C7A
:100A3000DECF4F925F926F927F928F929F92AF9292
:100A4000BF92CF92DF92EF92FF920F931F93CF93BB
:100A50006B017C01742EAC019B010E94070D68E3C1
:100A600071E0811126C046015701E894B7F82FEFD5
:100A70003FEF4FE75FE7C501B4010E94070D811109
:100A80000CC02FEF3FEF4FE75FE7C501B4010E94B5
:100A90003D0B6CE371E0181664F02FEF3FEF4FE76A
:100AA0005FE4C701B6010E94950C1816ACF460E42F
:100AB00071E087E692E0CF911F910F91FF90EF9048
:100AC000DF90CF90BF90AF909F908F907F906F906E
:100AD0005F904F900C94BE042FEF3FEF4FE75FEC19
:100AE000C701B6010E943D0B87FDE1CF20E030E059
:100AF000A901C701B6010E943D0B10E000E087FF8D
:100B00000AC06DE287E692E00E9429018C01F7FAA3
:100B1000F094F7F8F094C0E060E070E080E09FE3CC
:100B20007C1641F020E030E040E251E40E94420BAC
:100B3000CF5FF6CFA70196010E94D10A2B013C019D
:100B40000E94B40B4B015C012AE0BC01A40187E6C2
:100B500092E00E94CD047C01E00EF11ECC23D1F185
:100B6000C501B4010E94E30B9B01AC01C301B201BA
:100B70000E94D00A4B015C016EE287E692E00E947F
:100B80002901E80EF91EC15028F120E030E040E2D2
:100B900051E4C501B4010E949A0C2B013C010E9452
:100BA000B40B4B01B12CA12C2AE0B501A40187E6BE
:100BB00092E00E94CD04E80EF91EC501B4010E9426
:100BC000E30B9B01AC01C301B2010E94D00A4B01AF
:100BD0005C01D9CFC701CF911F910F91FF90EF908A
:100BE000DF90CF90BF90AF909F908F907F906F904D
:100BF0005F904F90089585ED8093BC008091160220
:100C000090911702A0911802B09119020796A11DA8
:100C1000B11D23E0B695A795979587952A95D1F7AD
:100C20002091BC0024FD03C010921402089540914D
:100C30001602509117026091180270911902452B0B
:100C4000462B472B69F30097A105B10541F02AE235
:100C50002A95F1F700C00197A109B109E1CF809170
:100C600015020C94C5021F920F920FB60F92112419
:100C70002F933F934F935F936F937F938F939F93A4
:100C8000AF93BF93EF93FF9387E692E00E94070133
:100C9000FF91EF91BF91AF919F918F917F916F9154
:100CA0005F914F913F912F910F900FBE0F901F902A
:100CB00018951F920F920FB60F9211242F938F93B6
:100CC0009F93EF93FF93E0917702F09178028081F8
:100CD000E0917D02F0917E0282FD1BC090818091A7
:100CE00080028F5F8F7320918102821741F0E09123
:100CF0008002F0E0E959FD4F958F80938002FF91CB
:100D0000EF919F918F912F910F900FBE0F901F9099
:100D100018958081F4CF1F920F920FB60F92112475
:100D20002F933F938F939F93AF93BF9380913D02F7
:100D300090913E02A0913F02B091400230913C025E
:100D400023E0230F2D3758F50196A11DB11D2093E7
:100D50003C0280933D0290933E02A0933F02B093E9
:100D600040028091410290914202A0914302B091D1
:100D700044020196A11DB11D80934102909342024D
:100D8000A0934302B0934402BF91AF919F918F9182
:100D90003F912F910F900FBE0F901F90189526E84E
:100DA000230F0296A11DB11DD2CF1F920F920FB635
:100DB0000F9211242F933F934F935F936F937F93E1
:100DC0008F939F93AF93BF93EF93FF938091B9005D
:100DD000887F803609F44AC0F0F5883209F4A7C04C
:100DE00018F5803109F49BC0B8F4882309F4F9C0E0
:100DF000883009F494C0FF91EF91BF91AF919F911A
:100E00008F917F916F915F914F913F912F910F90B3
:100E10000FBE0F901F901895883109F488C080325A
:100E200051F78093120214C0803409F49DC040F43D
:100E30008033B9F38833F9F68093120285ECB0C0A1
:100E4000803509F485C0883509F496C0883499F650
:100E50000E94FB05D0CF883909F48CC038F588375B
:100E600029F050F4883611F0803729F683E080931A
:100E700014021092ED0157C0883809F47BC0803904
:100E800019F0803809F0B7CF8091ED01803208F079
:100E900071C0E091ED0181E08E0F8093ED018091B2
:100EA000BB00F0E0E353FE4F80833DC0803B39F050
:100EB000E0F4803A09F479C0883A09F09CCF84E0E4
:100EC000809314021092CC011092CB01E091470262
:100ED000F091480209958091CB0181110FC081E00A
:100EE0008093CB011092AB0109C0803C09F4A6CFDE
:100EF000883C09F4A3CF883B09F07DCFE091CC0179
:100F000081E08E0F8093CC01F0E0E555FE4F8081AB
:100F10008093BB009091CC018091CB0129C080913E
:100F2000EF018093BB0085EC8093BC0064CF90916F
:100F3000110280911002981758F5E091110281E09A
:100F40008E0F80931102F0E0E051FE4F8081E9CFD7
:100F5000E091110281E08E0F809311028091BB001D
:100F6000F0E0E051FE4F80839091110280911002D9
:100F70009817C8F285E8D8CFE091110281E08E0F72
:100F8000809311028091BB00F0E0E051FE4F80831E
:100F90008091130281115CCF81E08093EE0184EA9D
:100FA0008093BC001092140226CF85EC8093BC0085
:100FB000109214028091ED01803230F4E091ED0145
:100FC000F0E0E353FE4F10826091ED0170E0E0919C
:100FD0004502F09146028DEC91E009951092ED01E9
:100FE0000ACF1092120234CFE7E6F2E013821282A7
:100FF00088EE93E0A0E0B0E084839583A683B78376
:101000002CE031E03183208325EC30E035872487E4
:1010100024EC30E03787268720EC30E0318B208BC2
:1010200021EC30E0338B228B22EC30E0358B248BAB
:1010300026EC30E0378B268B118E128E138E148E99
:10104000E4E0F3E01382128284839583A683B7835E
:101050008EE191E091838083E0E1F3E013821282DC
:1010600080E391E0918380838FE3848380E18187B3
:1010700082E0828713860895789484B5826084BD67
:1010800084B5816084BD85B5826085BD85B581608C
:1010900085BD80916E00816080936E00109281000A
:1010A00080918100826080938100809181008160C5
:1010B0008093810080918000816080938000809186
:1010C000B10084608093B1008091B0008160809312
:1010D000B00080917A00846080937A0080917A00D9
:1010E000826080937A0080917A00816080937A0098
:1010F00080917A00806880937A001092C10061E04C
:1011000082E10E94E20161E083E10E94E201E0915C
:101110007702F091780282E08083E0917302F0918F
:1011200074021082E0917502F09176028FEC808358
:1011300010927F02E0917B02F0917C0286E0808336
:10114000E0917902F0917A02808180618083E09160
:101150007902F0917A02808188608083E09179023F
:10116000F0917A02808180688083E0917902F09129
:101170007A0280818F7D808310924C0210924B0204
:1011800010924A02109249020E94A70287E890E05A
:10119000909348028093470288E890E0909346023B
:1011A000809345021092150380911A03823018F043
:1011B00098E0909315038093180362E370E080E059
:1011C00090E00E944D0260911B0380E193E00E9439
:1011D0006C0368EE73E080E090E00E944D0260E3F3
:1011E00080E193E00E945604CBE4D6E4CE0101975F
:1011F000F1F760E380E193E00E9456042197F1F754
:1012000060E380E193E00E94560483E592E0019759
:10121000F1F760E280E193E00E94560460911503CB
:10122000606240E080E193E00E946F0484E080937C
:10123000160340E06CE080E193E00E946F0440E020
:1012400061E080E193E00E946F04CBE3DFE1CE0137
:101250000197F1F782E08093170340E066E080E1B8
:1012600093E00E946F0440E062E080E193E00E941E
:101270006F042197F1F788E080931B0360E080E121
:1012800093E00E946C0364E471E080E193E00E94CB
:10129000BE0480E00E94860461E571E080E193E095
:1012A0000E94BE0469E571E087E692E00E94BE04F8
:1012B0006FE571E087E692E00E94BE0460E08FE097
:1012C0000E94E20161E086E00E94E20161E087E0C5
:1012D0000E94E201C5E6D2E003E612E090E0A92E0A
:1012E00090E0B92E8EE00E94130290934E028093FC
:1012F0004D0264E670E080E090E00E944D0262E6FC
:1013000071E087E692E00E94BE04C0904D02D0904A
:101310004E020D2C000CEE08FF082AE0B701A601D2
:10132000F7FE0DC06DE287E692E00E942901442796
:101330005527BA014C195D096E097F092AE087E635
:1013400092E00E94CD046FE571E087E692E00E9492
:10135000BE0487E00E9486046EE671E080E193E0BF
:101360000E94BE0487E00E948604C0904D02D09087
:101370004E020D2C000CEE08FF082AE0B701A60172
:10138000F7FE0EC041E06DE280E193E00E946F0441
:1013900044275527BA014C195D096E097F092AE0D7
:1013A00080E193E00E94CD046CE271E080E090E087
:1013B0000E944D0283E5E82E82E0F82E80E10E9433
:1013C0001302F701819391937F016AE070E080E05E
:1013D00090E00E944D02F7E6EF16F2E0FF0671F78B
:1013E000E3E5F2E0DF018081918112962D913C913D
:1013F00013972817390734F43183208313969C936D
:101400008E9312971296CA17DB0769F7329682E01D
:10141000E536F80739F7E7E5F2E060E070E0CB0188
:10142000C190D1900D2C000CEE08FF086C0D7D1DB5
:101430008E1D9F1D0E171F0799F760934F02709323
:10144000500280935102909352020E94E30B20E0DD
:1014500030E040EA50E40E949A0C20E030E040E89E
:101460005AE30E949A0C20E030E040EC50E40E94E5
:10147000420B6B017C0161E771E087E692E00E941C
:10148000BE0420E030E040E650E4C701B6010E940F
:101490009A0C45E00E9419056FE671E087E692E03C
:1014A0000E94BE046FE571E087E692E00E94BE04F0
:1014B0006CE271E080E090E00E944D028FE00E94BB
:1014C0001302BC01990F880B990B0E94E50B20E0D9
:1014D00030E040E85AE30E949A0C20E030E44CE906
:1014E00055E40E949A0C20E030E040E251E40E9472
:1014F000420B6B017C0168E771E087E692E00E9495
:10150000BE0442E0C701B6010E94190567E871E018
:1015100087E692E00E94BE046FE571E087E692E004
:101520000E94BE0420E030E048E851E4C701B60163
:101530000E943D0B87FF1AC061E086E00E94960181
:1015400060E087E00E9496016CE271E080E090E04C
:101550000E944D02A114B10409F4C4CE0E94F3000C
:10156000882309F4BFCE0E940000BCCE20E030E00A
:1015700048E851E4C701B6010E94950C1816E4F63C
:1015800020E030E04CE052E4C701B6010E943D0B80
:1015900087FFD2CF60E086E00E94960161E0D1CF64
:1015A0005058BB27AA270E94E80A0C945B0C0E94A3
:1015B0004D0C38F00E94540C20F039F49F3F19F480
:1015C00026F40C944A0C0EF4E095E7FB0C94440CC2
:1015D000E92F0E946C0C58F3BA176207730784074F
:1015E000950720F079F4A6F50C948E0C0EF4E09596
:1015F0000B2EBA2FA02D0B01B90190010C01CA01CD
:10160000A0011124FF27591B99F0593F50F4503E77
:1016100068F11A16F040A22F232F342F4427585F69
:10162000F3CF469537952795A795F0405395C9F781
:101630007EF41F16BA0B620B730B840BBAF0915039
:10164000A1F0FF0FBB1F661F771F881FC2F70EC0D8
:10165000BA0F621F731F841F48F4879577956795AB
:10166000B795F7959E3F08F0B0CF9395880F08F097
:101670009927EE0F9795879508950E94200C08F4FE
:1016800081E008950E94560B0C945B0C0E94540C50
:1016900058F00E944D0C40F029F45F3F29F00C9463
:1016A000440C51110C948F0C0C944A0C0E946C0C3D
:1016B00068F39923B1F3552391F3951B550BBB2781
:1016C000AA2762177307840738F09F5F5F4F220FC6
:1016D000331F441FAA1FA9F335D00E2E3AF0E0E8BD
:1016E00032D091505040E695001CCAF72BD0FE2F07
:1016F00029D0660F771F881FBB1F2617370748079B
:10170000AB07B0E809F0BB0B802DBF01FF27935852
:101710005F4F3AF09E3F510578F00C94440C0C94C6
:101720008F0C5F3FE4F3983ED4F3869577956795E9
:10173000B795F7959F5FC9F7880F911D9695879587
:1017400097F90895E1E0660F771F881FBB1F6217A6
:1017500073078407BA0720F0621B730B840BBA0B64
:10176000EE1F88F7E09508950E94740C88F09F574B
:1017700098F0B92F9927B751B0F0E1F0660F771FB5
:10178000881F991F1AF0BA95C9F714C0B13091F0AB
:101790000E948E0CB1E008950C948E0C672F782F68
:1017A0008827B85F39F0B93FCCF386957795679570
:1017B000B395D9F73EF490958095709561957F4FDC
:1017C0008F4F9F4F0895E89409C097FB3EF4909582
:1017D0008095709561957F4F8F4F9F4F9923A9F00A
:1017E000F92F96E9BB279395F69587957795679599
:1017F000B795F111F8CFFAF4BB0F11F460FF1BC0DD
:101800006F5F7F4F8F4F9F4F16C0882311F096E96F
:1018100011C0772321F09EE8872F762F05C066231D
:1018200071F096E8862F70E060E02AF09A95660FD6
:10183000771F881FDAF7880F9695879597F908958F
:10184000990F0008550FAA0BE0E8FEEF16161706D1
:10185000E807F907C0F012161306E407F50798F039
:10186000621B730B840B950B39F40A2661F0232B52
:10187000242B252B21F408950A2609F4A140A695CE
:101880008FEF811D811D089597F99F6780E870E0B3
:1018900060E008959FEF80EC089500240A941616E6
:1018A000170618060906089500240A94121613064E
:1018B000140605060895092E0394000C11F48823DC
:1018C00052F0BB0F40F4BF2B11F460FF04C06F5FF8
:1018D0007F4F8F4F9F4F089557FD9058440F551FCE
:1018E00059F05F3F71F04795880F97FB991F61F0A2
:1018F0009F3F79F087950895121613061406551F19
:10190000F2CF4695F1DF08C0161617061806991F84
:10191000F1CF86957105610508940895E894BB2779
:1019200066277727CB0197F908950E94200C08F4C9
:101930008FEF08950E94AD0C0C945B0C0E944D0C2F
:1019400038F00E94540C20F0952311F00C94440CB4
:101950000C944A0C11240C948F0C0E946C0C70F3A4
:10196000959FC1F3950F50E0551F629FF001729F44
:10197000BB27F00DB11D639FAA27F00DB11DAA1F53
:10198000649F6627B00DA11D661F829F2227B00DA0
:10199000A11D621F739FB00DA11D621F839FA00D2B
:1019A000611D221F749F3327A00D611D231F849F7B
:1019B000600D211D822F762F6A2F11249F575040D2
:1019C0009AF0F1F088234AF0EE0FFF1FBB1F661F4D
:1019D000771F881F91505040A9F79E3F510580F016
:1019E0000C94440C0C948F0C5F3FE4F3983ED4F3BA
:1019F000869577956795B795F795E7959F5FC1F7BA
:101A0000FE2B880F911D9695879597F908950E9452
:101A1000200C880B990B0895A1E21A2EAA1BBB1B60
:101A2000FD010DC0AA1FBB1FEE1FFF1FA217B307AA
:101A3000E407F50720F0A21BB30BE40BF50B661FC0
:101A4000771F881F991F1A9469F760957095809584
:101A500090959B01AC01BD01CF010895EE0FFF1FD2
:101A60000590F491E02D0994F894FFCF0000400018
:101A7000140054000000000029018900B60076011E
:101A8000E700C500D900000000003D031003530427
:101A9000E6020903F602E70200000000B80489002C
:101AA00053047F026E616E00696E66006F76660099
:101AB0004F584947454E4F20414755410056616CAC
:101AC0006F723A20005265616479000D0A00566118
:101AD0006C6F7220706F743A20002020002020204C
:101AE00070483A0054454D5045524154555241209A
:061AF0003D20002A430026
:107E0000112484B714BE81FFF0D085E080938100F7
:107E100082E08093C00088E18093C10086E0809377
:107E2000C20080E18093C4008EE0C9D0259A86E02C
:107E300020E33CEF91E0309385002093840096BBD3
:107E4000B09BFECF1D9AA8958150A9F7CC24DD24C4
:107E500088248394B5E0AB2EA1E19A2EF3E0BF2EE7
:107E6000A2D0813461F49FD0082FAFD0023811F036
:107E7000013811F484E001C083E08DD089C08234E0
:107E800011F484E103C0853419F485E0A6D080C0E4
:107E9000853579F488D0E82EFF2485D0082F10E0AE
:107EA000102F00270E291F29000F111F8ED06801E7
:107EB0006FC0863521F484E090D080E0DECF843638
:107EC00009F040C070D06FD0082F6DD080E0C81688
:107ED00080E7D80618F4F601B7BEE895C0E0D1E017
:107EE00062D089930C17E1F7F0E0CF16F0E7DF06D8
:107EF00018F0F601B7BEE89568D007B600FCFDCFD4
:107F0000A601A0E0B1E02C9130E011968C91119780
:107F100090E0982F8827822B932B1296FA010C0160
:107F200087BEE89511244E5F5F4FF1E0A038BF0790
:107F300051F7F601A7BEE89507B600FCFDCF97BE46
:107F4000E89526C08437B1F42ED02DD0F82E2BD052
:107F50003CD0F601EF2C8F010F5F1F4F84911BD097
:107F6000EA94F801C1F70894C11CD11CFA94CF0C13
:107F7000D11C0EC0853739F428D08EE10CD085E9AC
:107F80000AD08FE07ACF813511F488E018D01DD067
:107F900080E101D065CF982F8091C00085FFFCCF94
:107FA0009093C60008958091C00087FFFCCF809118
:107FB000C00084FD01C0A8958091C6000895E0E648
:107FC000F0E098E1908380830895EDDF803219F02E
:107FD00088E0F5DFFFCF84E1DECF1F93182FE3DFCA
:107FE0001150E9F7F2DF1F91089580E0E8DFEE27F6
:047FF000FF270994CA
:027FFE00040479
:00000001FF
